{
  "_format": "hh-sol-artifact-1",
  "contractName": "Voting",
  "sourceName": "contracts/voting.sol",
  "abi": [
    {
      "inputs": [
        {
          "internalType": "string",
          "name": "name",
          "type": "string"
        },
        {
          "internalType": "string",
          "name": "sign",
          "type": "string"
        }
      ],
      "name": "addCandidate",
      "outputs": [],
      "stateMutability": "nonpayable",
      "type": "function"
    },
    {
      "inputs": [
        {
          "internalType": "uint256",
          "name": "",
          "type": "uint256"
        }
      ],
      "name": "allVoters",
      "outputs": [
        {
          "internalType": "address",
          "name": "",
          "type": "address"
        }
      ],
      "stateMutability": "view",
      "type": "function"
    },
    {
      "inputs": [
        {
          "internalType": "uint256",
          "name": "",
          "type": "uint256"
        }
      ],
      "name": "candidates",
      "outputs": [
        {
          "internalType": "uint256",
          "name": "id",
          "type": "uint256"
        },
        {
          "internalType": "string",
          "name": "name",
          "type": "string"
        },
        {
          "internalType": "string",
          "name": "sign",
          "type": "string"
        },
        {
          "internalType": "uint256",
          "name": "voteCount",
          "type": "uint256"
        }
      ],
      "stateMutability": "view",
      "type": "function"
    },
    {
      "inputs": [],
      "name": "candidatesCount",
      "outputs": [
        {
          "internalType": "uint256",
          "name": "",
          "type": "uint256"
        }
      ],
      "stateMutability": "view",
      "type": "function"
    },
    {
      "inputs": [
        {
          "internalType": "uint256",
          "name": "id",
          "type": "uint256"
        }
      ],
      "name": "deleteCandidate",
      "outputs": [],
      "stateMutability": "nonpayable",
      "type": "function"
    },
    {
      "inputs": [],
      "name": "duration",
      "outputs": [
        {
          "internalType": "uint256",
          "name": "",
          "type": "uint256"
        }
      ],
      "stateMutability": "view",
      "type": "function"
    },
    {
      "inputs": [],
      "name": "endTime",
      "outputs": [
        {
          "internalType": "uint256",
          "name": "",
          "type": "uint256"
        }
      ],
      "stateMutability": "view",
      "type": "function"
    },
    {
      "inputs": [],
      "name": "endVote",
      "outputs": [],
      "stateMutability": "nonpayable",
      "type": "function"
    },
    {
      "inputs": [],
      "name": "owner",
      "outputs": [
        {
          "internalType": "address",
          "name": "",
          "type": "address"
        }
      ],
      "stateMutability": "view",
      "type": "function"
    },
    {
      "inputs": [],
      "name": "resetAddress",
      "outputs": [],
      "stateMutability": "nonpayable",
      "type": "function"
    },
    {
      "inputs": [],
      "name": "resetVoteCount",
      "outputs": [],
      "stateMutability": "nonpayable",
      "type": "function"
    },
    {
      "inputs": [],
      "name": "rmvAllCandidates",
      "outputs": [],
      "stateMutability": "nonpayable",
      "type": "function"
    },
    {
      "inputs": [
        {
          "internalType": "uint256",
          "name": "End_Time",
          "type": "uint256"
        }
      ],
      "name": "startVoting",
      "outputs": [],
      "stateMutability": "nonpayable",
      "type": "function"
    },
    {
      "inputs": [
        {
          "internalType": "uint256",
          "name": "id",
          "type": "uint256"
        }
      ],
      "name": "voteCandidate",
      "outputs": [],
      "stateMutability": "nonpayable",
      "type": "function"
    }
  ],
  "bytecode": "0x608060405233600260006101000a81548173ffffffffffffffffffffffffffffffffffffffff021916908373ffffffffffffffffffffffffffffffffffffffff160217905550348015605057600080fd5b50611943806100606000396000f3fe608060405234801561001057600080fd5b50600436106100ea5760003560e01c80633612fcd91161008c5780638c08a4dc116100665780638c08a4dc146102145780638da5cb5b14610230578063b92239461461024e578063bc977dc314610258576100ea565b80633612fcd9146101be5780633d2f5bda146101c857806385650674146101e4576100ea565b806326541b56116100c857806326541b56146101335780632d35a8a21461014f5780633197cbb61461016d5780633477ee2e1461018b576100ea565b8063039d6019146100ef5780630fb5a6b4146100f95780631e620cd414610117575b600080fd5b6100f7610262565b005b61010161033c565b60405161010e9190610eb0565b60405180910390f35b610131600480360381019061012c9190610f0b565b610342565b005b61014d6004803603810190610148919061107e565b610529565b005b610157610651565b6040516101649190610eb0565b60405180910390f35b61017561065d565b6040516101829190610eb0565b60405180910390f35b6101a560048036038101906101a09190610f0b565b610663565b6040516101b59493929190611175565b60405180910390f35b6101c66107b3565b005b6101e260048036038101906101dd9190610f0b565b610852565b005b6101fe60048036038101906101f99190610f0b565b610925565b60405161020b9190611209565b60405180910390f35b61022e60048036038101906102299190610f0b565b610964565b005b610238610b7f565b6040516102459190611209565b60405180910390f35b610256610ba5565b005b610260610c5a565b005b3373ffffffffffffffffffffffffffffffffffffffff16600260009054906101000a900473ffffffffffffffffffffffffffffffffffffffff1673ffffffffffffffffffffffffffffffffffffffff16146102f2576040517f08c379a00000000000000000000000000000000000000000000000000000000081526004016102e990611296565b60405180910390fd5b60005b600080549050811015610339576000808281548110610317576103166112b6565b5b90600052602060002090600402016003018190555080806001019150506102f5565b50565b60045481565b3373ffffffffffffffffffffffffffffffffffffffff16600260009054906101000a900473ffffffffffffffffffffffffffffffffffffffff1673ffffffffffffffffffffffffffffffffffffffff16146103d2576040517f08c379a00000000000000000000000000000000000000000000000000000000081526004016103c990611296565b60405180910390fd5b60008054905081106103e357600080fd5b60008190505b60016000805490506103fb9190611314565b8110156104ca5760006001826104119190611348565b81548110610422576104216112b6565b5b906000526020600020906004020160008281548110610444576104436112b6565b5b90600052602060002090600402016000820154816000015560018201816001019081610470919061159e565b5060028201816002019081610485919061159e565b506003820154816003015590505080600082815481106104a8576104a76112b6565b5b90600052602060002090600402016000018190555080806001019150506103e9565b5060008054806104dd576104dc611686565b5b600190038181906000526020600020906004020160008082016000905560018201600061050a9190610dae565b60028201600061051a9190610dae565b60038201600090555050905550565b3373ffffffffffffffffffffffffffffffffffffffff16600260009054906101000a900473ffffffffffffffffffffffffffffffffffffffff1673ffffffffffffffffffffffffffffffffffffffff16146105b9576040517f08c379a00000000000000000000000000000000000000000000000000000000081526004016105b090611296565b60405180910390fd5b6000604051806080016040528060008054905081526020018481526020018381526020016000815250908060018154018082558091505060019003906000526020600020906004020160009091909190915060008201518160000155602082015181600101908161062a91906116b5565b50604082015181600201908161064091906116b5565b506060820151816003015550505050565b60008080549050905090565b60035481565b6000818154811061067357600080fd5b906000526020600020906004020160009150905080600001549080600101805461069c906113ab565b80601f01602080910402602001604051908101604052809291908181526020018280546106c8906113ab565b80156107155780601f106106ea57610100808354040283529160200191610715565b820191906000526020600020905b8154815290600101906020018083116106f857829003601f168201915b50505050509080600201805461072a906113ab565b80601f0160208091040260200160405190810160405280929190818152602001828054610756906113ab565b80156107a35780601f10610778576101008083540402835291602001916107a3565b820191906000526020600020905b81548152906001019060200180831161078657829003601f168201915b5050505050908060030154905084565b3373ffffffffffffffffffffffffffffffffffffffff16600260009054906101000a900473ffffffffffffffffffffffffffffffffffffffff1673ffffffffffffffffffffffffffffffffffffffff1614610843576040517f08c379a000000000000000000000000000000000000000000000000000000000815260040161083a90611296565b60405180910390fd5b6000806108509190610dee565b565b3373ffffffffffffffffffffffffffffffffffffffff16600260009054906101000a900473ffffffffffffffffffffffffffffffffffffffff1673ffffffffffffffffffffffffffffffffffffffff16146108e2576040517f08c379a00000000000000000000000000000000000000000000000000000000081526004016108d990611296565b60405180910390fd5b6001600560006101000a81548160ff0219169083151502179055508060048190555042603c826109129190611787565b61091c9190611348565b60038190555050565b6006818154811061093557600080fd5b906000526020600020016000915054906101000a900473ffffffffffffffffffffffffffffffffffffffff1681565b600560009054906101000a900460ff166109b3576040517f08c379a00000000000000000000000000000000000000000000000000000000081526004016109aa90611815565b60405180910390fd5b4260035410156109f8576040517f08c379a00000000000000000000000000000000000000000000000000000000081526004016109ef90611881565b60405180910390fd5b600160003373ffffffffffffffffffffffffffffffffffffffff1673ffffffffffffffffffffffffffffffffffffffff16815260200190815260200160002060009054906101000a900460ff1615610a85576040517f08c379a0000000000000000000000000000000000000000000000000000000008152600401610a7c906118ed565b60405180910390fd5b600160008281548110610a9b57610a9a6112b6565b5b90600052602060002090600402016003016000828254610abb9190611348565b9250508190555060018060003373ffffffffffffffffffffffffffffffffffffffff1673ffffffffffffffffffffffffffffffffffffffff16815260200190815260200160002060006101000a81548160ff0219169083151502179055506006339080600181540180825580915050600190039060005260206000200160009091909190916101000a81548173ffffffffffffffffffffffffffffffffffffffff021916908373ffffffffffffffffffffffffffffffffffffffff16021790555050565b600260009054906101000a900473ffffffffffffffffffffffffffffffffffffffff1681565b3373ffffffffffffffffffffffffffffffffffffffff16600260009054906101000a900473ffffffffffffffffffffffffffffffffffffffff1673ffffffffffffffffffffffffffffffffffffffff1614610c35576040517f08c379a0000000000000000000000000000000000000000000000000000000008152600401610c2c90611296565b60405180910390fd5b6000600560006101000a81548160ff0219169083151502179055506000600381905550565b3373ffffffffffffffffffffffffffffffffffffffff16600260009054906101000a900473ffffffffffffffffffffffffffffffffffffffff1673ffffffffffffffffffffffffffffffffffffffff1614610cea576040517f08c379a0000000000000000000000000000000000000000000000000000000008152600401610ce190611296565b60405180910390fd5b60005b600680549050811015610d9d5760006001600060068481548110610d1457610d136112b6565b5b9060005260206000200160009054906101000a900473ffffffffffffffffffffffffffffffffffffffff1673ffffffffffffffffffffffffffffffffffffffff1673ffffffffffffffffffffffffffffffffffffffff16815260200190815260200160002060006101000a81548160ff0219169083151502179055508080600101915050610ced565b5060066000610dac9190610e12565b565b508054610dba906113ab565b6000825580601f10610dcc5750610deb565b601f016020900490600052602060002090810190610dea9190610e33565b5b50565b5080546000825560040290600052602060002090810190610e0f9190610e50565b50565b5080546000825590600052602060002090810190610e309190610e33565b50565b5b80821115610e4c576000816000905550600101610e34565b5090565b5b80821115610e9357600080820160009055600182016000610e729190610dae565b600282016000610e829190610dae565b600382016000905550600401610e51565b5090565b6000819050919050565b610eaa81610e97565b82525050565b6000602082019050610ec56000830184610ea1565b92915050565b6000604051905090565b600080fd5b600080fd5b610ee881610e97565b8114610ef357600080fd5b50565b600081359050610f0581610edf565b92915050565b600060208284031215610f2157610f20610ed5565b5b6000610f2f84828501610ef6565b91505092915050565b600080fd5b600080fd5b6000601f19601f8301169050919050565b7f4e487b7100000000000000000000000000000000000000000000000000000000600052604160045260246000fd5b610f8b82610f42565b810181811067ffffffffffffffff82111715610faa57610fa9610f53565b5b80604052505050565b6000610fbd610ecb565b9050610fc98282610f82565b919050565b600067ffffffffffffffff821115610fe957610fe8610f53565b5b610ff282610f42565b9050602081019050919050565b82818337600083830152505050565b600061102161101c84610fce565b610fb3565b90508281526020810184848401111561103d5761103c610f3d565b5b611048848285610fff565b509392505050565b600082601f83011261106557611064610f38565b5b813561107584826020860161100e565b91505092915050565b6000806040838503121561109557611094610ed5565b5b600083013567ffffffffffffffff8111156110b3576110b2610eda565b5b6110bf85828601611050565b925050602083013567ffffffffffffffff8111156110e0576110df610eda565b5b6110ec85828601611050565b9150509250929050565b600081519050919050565b600082825260208201905092915050565b60005b83811015611130578082015181840152602081019050611115565b60008484015250505050565b6000611147826110f6565b6111518185611101565b9350611161818560208601611112565b61116a81610f42565b840191505092915050565b600060808201905061118a6000830187610ea1565b818103602083015261119c818661113c565b905081810360408301526111b0818561113c565b90506111bf6060830184610ea1565b95945050505050565b600073ffffffffffffffffffffffffffffffffffffffff82169050919050565b60006111f3826111c8565b9050919050565b611203816111e8565b82525050565b600060208201905061121e60008301846111fa565b92915050565b7f4f6e6c792041646d696e2068617665207065726d697373696f6e20746869732060008201527f616374696f6e0000000000000000000000000000000000000000000000000000602082015250565b6000611280602683611101565b915061128b82611224565b604082019050919050565b600060208201905081810360008301526112af81611273565b9050919050565b7f4e487b7100000000000000000000000000000000000000000000000000000000600052603260045260246000fd5b7f4e487b7100000000000000000000000000000000000000000000000000000000600052601160045260246000fd5b600061131f82610e97565b915061132a83610e97565b9250828203905081811115611342576113416112e5565b5b92915050565b600061135382610e97565b915061135e83610e97565b9250828201905080821115611376576113756112e5565b5b92915050565b7f4e487b7100000000000000000000000000000000000000000000000000000000600052602260045260246000fd5b600060028204905060018216806113c357607f821691505b6020821081036113d6576113d561137c565b5b50919050565b6000815490506113eb816113ab565b9050919050565b60008190508160005260206000209050919050565b60006020601f8301049050919050565b600082821b905092915050565b6000600883026114547fffffffffffffffffffffffffffffffffffffffffffffffffffffffffffffffff82611417565b61145e8683611417565b95508019841693508086168417925050509392505050565b6000819050919050565b600061149b61149661149184610e97565b611476565b610e97565b9050919050565b6000819050919050565b6114b583611480565b6114c96114c1826114a2565b848454611424565b825550505050565b600090565b6114de6114d1565b6114e98184846114ac565b505050565b5b8181101561150d576115026000826114d6565b6001810190506114ef565b5050565b601f82111561155257611523816113f2565b61152c84611407565b8101602085101561153b578190505b61154f61154785611407565b8301826114ee565b50505b505050565b600082821c905092915050565b600061157560001984600802611557565b1980831691505092915050565b600061158e8383611564565b9150826002028217905092915050565b8181036115ac575050611684565b6115b5826113dc565b67ffffffffffffffff8111156115ce576115cd610f53565b5b6115d882546113ab565b6115e3828285611511565b6000601f8311600181146116125760008415611600578287015490505b61160a8582611582565b86555061167d565b601f198416611620876113f2565b965061162b866113f2565b60005b828110156116535784890154825560018201915060018501945060208101905061162e565b86831015611670578489015461166c601f891682611564565b8355505b6001600288020188555050505b5050505050505b565b7f4e487b7100000000000000000000000000000000000000000000000000000000600052603160045260246000fd5b6116be826110f6565b67ffffffffffffffff8111156116d7576116d6610f53565b5b6116e182546113ab565b6116ec828285611511565b600060209050601f83116001811461171f576000841561170d578287015190505b6117178582611582565b86555061177f565b601f19841661172d866113f2565b60005b8281101561175557848901518255600182019150602085019450602081019050611730565b86831015611772578489015161176e601f891682611564565b8355505b6001600288020188555050505b505050505050565b600061179282610e97565b915061179d83610e97565b92508282026117ab81610e97565b915082820484148315176117c2576117c16112e5565b5b5092915050565b7f566f7465206861736e2774207374617274656420796574000000000000000000600082015250565b60006117ff601783611101565b915061180a826117c9565b602082019050919050565b6000602082019050818103600083015261182e816117f2565b9050919050565b7f54686520766f74696e672068617320636c6f7365642100000000000000000000600082015250565b600061186b601683611101565b915061187682611835565b602082019050919050565b6000602082019050818103600083015261189a8161185e565b9050919050565b7f596f7527766520616c726561647920766f746520736f6d656f6e650000000000600082015250565b60006118d7601b83611101565b91506118e2826118a1565b602082019050919050565b60006020820190508181036000830152611906816118ca565b905091905056fea2646970667358221220d92765fcb58e28c407cc7754748d28923e086c503b8de78c37705740dddf277164736f6c634300081c0033",
  "linkReferences": {},
  "deployedLinkReferences": {}
}